{
  "contractName": "CoinToFlip",
  "abi": [
    {
      "inputs": [],
      "payable": false,
      "stateMutability": "nonpayable",
      "type": "constructor"
    },
    {
      "anonymous": false,
      "inputs": [
        {
          "indexed": true,
          "internalType": "address",
          "name": "beneficiary",
          "type": "address"
        },
        {
          "indexed": false,
          "internalType": "uint256",
          "name": "amount",
          "type": "uint256"
        }
      ],
      "name": "FailedPayment",
      "type": "event"
    },
    {
      "anonymous": false,
      "inputs": [
        {
          "indexed": true,
          "internalType": "address",
          "name": "beneficiary",
          "type": "address"
        },
        {
          "indexed": false,
          "internalType": "uint256",
          "name": "amount",
          "type": "uint256"
        }
      ],
      "name": "Payment",
      "type": "event"
    },
    {
      "anonymous": false,
      "inputs": [
        {
          "indexed": true,
          "internalType": "address",
          "name": "gambler",
          "type": "address"
        },
        {
          "indexed": false,
          "internalType": "uint256",
          "name": "reveal",
          "type": "uint256"
        },
        {
          "indexed": false,
          "internalType": "uint256",
          "name": "amount",
          "type": "uint256"
        }
      ],
      "name": "Reveal",
      "type": "event"
    },
    {
      "payable": true,
      "stateMutability": "payable",
      "type": "fallback"
    },
    {
      "constant": true,
      "inputs": [],
      "name": "lockedInBets",
      "outputs": [
        {
          "internalType": "uint256",
          "name": "",
          "type": "uint256"
        }
      ],
      "payable": false,
      "stateMutability": "view",
      "type": "function"
    },
    {
      "constant": true,
      "inputs": [],
      "name": "owner",
      "outputs": [
        {
          "internalType": "address payable",
          "name": "",
          "type": "address"
        }
      ],
      "payable": false,
      "stateMutability": "view",
      "type": "function"
    },
    {
      "constant": false,
      "inputs": [
        {
          "internalType": "address payable",
          "name": "beneficiary",
          "type": "address"
        },
        {
          "internalType": "uint256",
          "name": "withdrawAmount",
          "type": "uint256"
        }
      ],
      "name": "withdrawFunds",
      "outputs": [],
      "payable": false,
      "stateMutability": "nonpayable",
      "type": "function"
    },
    {
      "constant": false,
      "inputs": [],
      "name": "kill",
      "outputs": [],
      "payable": false,
      "stateMutability": "nonpayable",
      "type": "function"
    },
    {
      "constant": false,
      "inputs": [
        {
          "internalType": "uint8",
          "name": "betMask",
          "type": "uint8"
        }
      ],
      "name": "placeBet",
      "outputs": [],
      "payable": true,
      "stateMutability": "payable",
      "type": "function"
    },
    {
      "constant": false,
      "inputs": [],
      "name": "revealResult",
      "outputs": [],
      "payable": false,
      "stateMutability": "nonpayable",
      "type": "function"
    },
    {
      "constant": false,
      "inputs": [],
      "name": "refundBet",
      "outputs": [],
      "payable": false,
      "stateMutability": "nonpayable",
      "type": "function"
    },
    {
      "constant": true,
      "inputs": [],
      "name": "checkHouseFund",
      "outputs": [
        {
          "internalType": "uint256",
          "name": "",
          "type": "uint256"
        }
      ],
      "payable": false,
      "stateMutability": "view",
      "type": "function"
    }
  ],
  "bytecode": "0x608060405234801561001057600080fd5b50336000806101000a81548173ffffffffffffffffffffffffffffffffffffffff021916908373ffffffffffffffffffffffffffffffffffffffff16021790555061105c806100606000396000f3fe60806040526004361061007b5760003560e01c80635dbc19f41161004e5780635dbc19f4146101075780638da5cb5b1461011e578063c107532914610175578063df88126f146101d05761007b565b806311ea8acb1461007d578063172f82761461009457806341c0e1b5146100bf57806343046844146100d6575b005b34801561008957600080fd5b506100926101fb565b005b3480156100a057600080fd5b506100a9610390565b6040518082815260200191505060405180910390f35b3480156100cb57600080fd5b506100d461043d565b005b610105600480360360208110156100ec57600080fd5b81019080803560ff169060200190929190505050610577565b005b34801561011357600080fd5b5061011c6108d8565b005b34801561012a57600080fd5b50610133610b4d565b604051808273ffffffffffffffffffffffffffffffffffffffff1673ffffffffffffffffffffffffffffffffffffffff16815260200191505060405180910390f35b34801561018157600080fd5b506101ce6004803603604081101561019857600080fd5b81019080803573ffffffffffffffffffffffffffffffffffffffff16906020019092919080359060200190929190505050610b72565b005b3480156101dc57600080fd5b506101e5610c9f565b6040518082815260200191505060405180910390f35b6000600260003373ffffffffffffffffffffffffffffffffffffffff1673ffffffffffffffffffffffffffffffffffffffff168152602001908152602001600020905060008160010160009054906101000a900460ff16905060008260000154905060008360030160019054906101000a900473ffffffffffffffffffffffffffffffffffffffff169050836002015443116102e2576040517f08c379a0000000000000000000000000000000000000000000000000000000008152600401808060200182810382526032815260200180610fa36032913960400191505060405180910390fd5b60008211610358576040517f08c379a00000000000000000000000000000000000000000000000000000000081526004018080602001828103825260208152602001807f4265742073686f756c6420626520696e20616e2061637469766520737461746581525060200191505060405180910390fd5b60006103648385610ca5565b90508060016000828254039250508190555061037f33610d81565b6103898284610e5c565b5050505050565b60008060009054906101000a900473ffffffffffffffffffffffffffffffffffffffff1673ffffffffffffffffffffffffffffffffffffffff163373ffffffffffffffffffffffffffffffffffffffff1614610437576040517f08c379a00000000000000000000000000000000000000000000000000000000081526004018080602001828103825260228152602001806110066022913960400191505060405180910390fd5b47905090565b6000809054906101000a900473ffffffffffffffffffffffffffffffffffffffff1673ffffffffffffffffffffffffffffffffffffffff163373ffffffffffffffffffffffffffffffffffffffff16146104e2576040517f08c379a00000000000000000000000000000000000000000000000000000000081526004018080602001828103825260228152602001806110066022913960400191505060405180910390fd5b60006001541461053d576040517f08c379a0000000000000000000000000000000000000000000000000000000008152600401808060200182810382526031815260200180610fd56031913960400191505060405180910390fd5b6000809054906101000a900473ffffffffffffffffffffffffffffffffffffffff1673ffffffffffffffffffffffffffffffffffffffff16ff5b600034905067016345785d8a0000811015801561059c5750678ac7230489e800008111155b61060e576040517f08c379a00000000000000000000000000000000000000000000000000000000081526004018080602001828103825260168152602001807f416d6f756e74206973206f7574206f662072616e67650000000000000000000081525060200191505060405180910390fd5b60008260ff1611801561062557506101008260ff16105b610697576040517f08c379a00000000000000000000000000000000000000000000000000000000081526004018080602001828103825260148152602001807f4d61736b2073686f756c6420626520382062697400000000000000000000000081525060200191505060405180910390fd5b6000600260003373ffffffffffffffffffffffffffffffffffffffff1673ffffffffffffffffffffffffffffffffffffffff1681526020019081526020016000209050600073ffffffffffffffffffffffffffffffffffffffff168160030160019054906101000a900473ffffffffffffffffffffffffffffffffffffffff1673ffffffffffffffffffffffffffffffffffffffff16146107a0576040517f08c379a000000000000000000000000000000000000000000000000000000000815260040180806020018281038252601a8152602001807f4265742073686f756c6420626520656d7074792073746174652e00000000000081525060200191505060405180910390fd5b60006107ab84610f3c565b905060006107b98483610ca5565b9050806001600082825401925050819055504760015410610842576040517f08c379a000000000000000000000000000000000000000000000000000000000815260040180806020018281038252601c8152602001807f43616e6e6f74206166666f726420746f2070617920746865206265740000000081525060200191505060405180910390fd5b838360000181905550818360010160006101000a81548160ff021916908360ff160217905550438360020181905550848360030160006101000a81548160ff021916908360ff160217905550338360030160016101000a81548173ffffffffffffffffffffffffffffffffffffffff021916908373ffffffffffffffffffffffffffffffffffffffff1602179055505050505050565b6000600260003373ffffffffffffffffffffffffffffffffffffffff1673ffffffffffffffffffffffffffffffffffffffff168152602001908152602001600020905060008160000154905060008260010160009054906101000a900460ff16905060008360020154905060008460030160019054906101000a900473ffffffffffffffffffffffffffffffffffffffff169050600084116109e2576040517f08c379a00000000000000000000000000000000000000000000000000000000081526004018080602001828103825260208152602001807f4265742073686f756c6420626520696e20616e2061637469766520737461746581525060200191505060405180910390fd5b814311610a3a576040517f08c379a0000000000000000000000000000000000000000000000000000000008152600401808060200182810382526036815260200180610f6d6036913960400191505060405180910390fd5b6000434083406040516020018083815260200182815260200192505050604051602081830303815290604052805190602001209050600060028260001c81610a7e57fe5b06905060008090506000809050610a958888610ca5565b905060008960030160009054906101000a900460ff1660ff168460020a1614610abc578091505b8473ffffffffffffffffffffffffffffffffffffffff167fbd515cb7fe6810ea1d996c4efb3231c8b281498ca8062a4ec905d41943824bdf8460020a84604051808381526020018281526020019250505060405180910390a280600160008282540392505081905550610b2e33610d81565b6000821115610b4257610b418583610e5c565b5b505050505050505050565b6000809054906101000a900473ffffffffffffffffffffffffffffffffffffffff1681565b6000809054906101000a900473ffffffffffffffffffffffffffffffffffffffff1673ffffffffffffffffffffffffffffffffffffffff163373ffffffffffffffffffffffffffffffffffffffff1614610c17576040517f08c379a00000000000000000000000000000000000000000000000000000000081526004018080602001828103825260228152602001806110066022913960400191505060405180910390fd5b4760015482011115610c91576040517f08c379a00000000000000000000000000000000000000000000000000000000081526004018080602001828103825260148152602001807f6c6172676572207468616e2062616c616e63652e00000000000000000000000081525060200191505060405180910390fd5b610c9b8282610e5c565b5050565b60015481565b60008160ff166000108015610cbd575060028260ff16105b610d2f576040517f08c379a000000000000000000000000000000000000000000000000000000000815260040180806020018281038252601b8152602001807f50726f626162696c697479206973206f7574206f662072616e6765000000000081525060200191505060405180910390fd5b600060646005850281610d3e57fe5b0490506611c37937e08000811015610d5b576611c37937e0800090505b60006001840360ff166002018581610d6f57fe5b04905080828603019250505092915050565b6000600260008373ffffffffffffffffffffffffffffffffffffffff1673ffffffffffffffffffffffffffffffffffffffff16815260200190815260200160002090506000816000018190555060008160010160006101000a81548160ff021916908360ff1602179055506000816002018190555060008160030160006101000a81548160ff021916908360ff16021790555060008160030160016101000a81548173ffffffffffffffffffffffffffffffffffffffff021916908373ffffffffffffffffffffffffffffffffffffffff1602179055505050565b8173ffffffffffffffffffffffffffffffffffffffff166108fc829081150290604051600060405180830381858888f1935050505015610ee9578173ffffffffffffffffffffffffffffffffffffffff167fd4f43975feb89f48dd30cabbb32011045be187d1e11c8ea9faa43efc35282519826040518082815260200191505060405180910390a2610f38565b8173ffffffffffffffffffffffffffffffffffffffff167fac464fe4d3a86b9121261ac0a01dd981bfe0777c7c9d9c8f4473d31a9c0f9d2d826040518082815260200191505060405180910390a25b5050565b6000805b60008360ff161115610f6357600183168101905060018360ff16901c9250610f40565b8091505091905056fe72657665616c526573756c7420696e207468652073616d6520626c6f636b20617320706c6163654265742c206f72206265666f72652e726566756e42657420696e207468732073616d6520626c6f636b20617320706c6163654265742c206f72206265666f72652e616c6c20626574732073686f756c642062652070726f636573736564206265666f72652073656c662d64657374727563744f6e6c79206f776d65722063616e2063616c6c20746869732066756e6374696f6e2ea265627a7a723158202b0d6d455333f0e2bdd6f9c784a3a13e02d30f1f094598ddd3945a74b3477a0964736f6c63430005100032",
  "source": "pragma solidity ^0.5.16;\r\n\r\ncontract CoinToFlip {\r\n    uint constant MAX_CASE = 2;\r\n    uint constant MIN_BET = 0.1 ether;\r\n    uint constant MAX_BET = 10 ether;\r\n    uint constant HOUSE_FEE_PERCENT = 5;\r\n    uint constant HOUSE_MIN_FEE = 0.005 ether;\r\n\r\n    address payable public owner;\r\n    uint public lockedInBets;\r\n\r\n    struct Bet {\r\n        uint amount;\r\n        uint8 numOfBetBit;\r\n        uint placeBlockNumber;\r\n        uint8 mask;\r\n        address payable gambler;\r\n    }\r\n\r\n    mapping(address => Bet) bets;\r\n\r\n    event Reveal(address indexed gambler, uint reveal, uint amount);\r\n    event Payment(address indexed beneficiary, uint amount);\r\n    event FailedPayment(address indexed beneficiary, uint amount);\r\n\r\n    constructor () public{\r\n        owner = msg.sender;\r\n    }\r\n\r\n    modifier onlyOwner {\r\n        require(msg.sender == owner, \"Only owmer can call this function.\");\r\n        _;\r\n    }\r\n\r\n    function withdrawFunds(address payable beneficiary, uint withdrawAmount) external onlyOwner {\r\n        require(withdrawAmount + lockedInBets <= address(this).balance, \"larger than balance.\");\r\n        sendFunds(beneficiary, withdrawAmount);\r\n    }\r\n\r\n    function kill() external onlyOwner {\r\n        require(lockedInBets == 0, \"all bets should be processed before self-destruct\");\r\n        selfdestruct(owner);\r\n    }\r\n\r\n    function () external payable {}\r\n\r\n    function placeBet(uint8 betMask) external payable {\r\n        uint amount = msg.value;\r\n\r\n        require(amount >= MIN_BET && amount <= MAX_BET, \"Amount is out of range\");\r\n        //What is betMask\r\n        require(betMask > 0 && betMask < 256, \"Mask should be 8 bit\");\r\n\r\n        Bet storage bet = bets[msg.sender];\r\n\r\n        require(bet.gambler == address(0), \"Bet should be empty state.\");\r\n\r\n        uint8 numOfBetBit = countBits(betMask);\r\n\r\n        uint possibleWinningAmount = getWinningAmount(amount, numOfBetBit);\r\n        lockedInBets += possibleWinningAmount;\r\n\r\n        require(lockedInBets < address(this).balance, \"Cannot afford to pay the bet\");\r\n\r\n        bet.amount = amount;\r\n        bet.numOfBetBit = numOfBetBit;\r\n        bet.placeBlockNumber = block.number;\r\n        bet.mask = betMask;\r\n        bet.gambler = msg.sender;\r\n    }\r\n\r\n    function getWinningAmount(uint amount, uint8 numOfBetBit) private pure returns (uint winningAmount) {\r\n        require(0 < numOfBetBit && numOfBetBit < MAX_CASE, \"Probability is out of range\");\r\n\r\n        uint houseFee = amount * HOUSE_FEE_PERCENT / 100;\r\n\r\n        if (houseFee < HOUSE_MIN_FEE) {\r\n            houseFee = HOUSE_MIN_FEE;\r\n        }\r\n\r\n        uint reward = amount / (MAX_CASE + (numOfBetBit-1));\r\n\r\n        winningAmount = (amount - houseFee) + reward;\r\n    }\r\n\r\n    function revealResult() external {\r\n        Bet storage bet = bets[msg.sender];\r\n        uint amount = bet.amount;\r\n        uint8 numOfBetBit = bet.numOfBetBit;\r\n        uint placeBlockNumber = bet.placeBlockNumber;\r\n        address payable gambler = bet.gambler;\r\n\r\n        require(amount > 0, \"Bet should be in an active state\");\r\n\r\n        require(block.number > placeBlockNumber, \"revealResult in the same block as placeBet, or before.\");\r\n\r\n        bytes32 random = keccak256(abi.encodePacked(blockhash(block.number), blockhash(placeBlockNumber)));\r\n        uint reveal = uint(random) % MAX_CASE;\r\n\r\n        uint winningAmount = 0;\r\n        uint possibleWinningAmount = 0;\r\n        possibleWinningAmount = getWinningAmount(amount, numOfBetBit);\r\n\r\n        if((2 ** reveal) & bet.mask != 0) {\r\n            winningAmount = possibleWinningAmount;\r\n        }\r\n\r\n        emit Reveal(gambler, 2 ** reveal, winningAmount);\r\n\r\n        lockedInBets -= possibleWinningAmount;\r\n        clearBet(msg.sender);\r\n\r\n        if(winningAmount > 0) {\r\n            sendFunds(gambler, winningAmount);\r\n        }\r\n    }\r\n\r\n    function sendFunds(address payable beneficiary, uint amount) private {\r\n        if(beneficiary.send(amount)) {\r\n            emit Payment(beneficiary, amount);\r\n        }else {\r\n            emit FailedPayment(beneficiary, amount);\r\n        }\r\n    }\r\n\r\n    function clearBet(address player) private {\r\n        Bet storage bet = bets[player];\r\n\r\n        bet.amount = 0;\r\n        bet.numOfBetBit = 0;\r\n        bet.placeBlockNumber = 0;\r\n        bet.mask = 0;\r\n        bet.gambler = address(0);\r\n    }\r\n\r\n    function refundBet() external {\r\n        Bet storage bet = bets[msg.sender];\r\n\r\n        uint8 numOfBetBit = bet.numOfBetBit;\r\n        uint amount = bet.amount;\r\n        address payable gambler = bet.gambler;\r\n\r\n        require(block.number > bet.placeBlockNumber, \"refunBet in ths same block as placeBet, or before.\");\r\n        require(amount > 0, \"Bet should be in an active state\");\r\n\r\n        uint possibleWinningAmount;\r\n        possibleWinningAmount = getWinningAmount(amount, numOfBetBit);\r\n\r\n        lockedInBets -= possibleWinningAmount;\r\n        clearBet(msg.sender);\r\n\r\n        sendFunds(gambler, amount);\r\n    }\r\n\r\n    function checkHouseFund() public view onlyOwner returns(uint) {\r\n        return address(this).balance;\r\n    }\r\n\r\n    function countBits(uint8 _num) internal pure returns (uint8) {\r\n        uint8 count;\r\n        while(_num > 0) {\r\n            count += _num & 1;\r\n            _num >>= 1;\r\n        }\r\n        return count;\r\n    }\r\n}\r\n",
  "sourcePath": "C:\\Users\\PocketMemory\\Desktop\\react-dapp\\contracts\\CoinToFlip.sol",
  "compiler": {
    "name": "solc",
    "version": "0.5.16+commit.9c3226ce.Emscripten.clang"
  },
  "schemaVersion": "3.4.3",
  "updatedAt": "2021-12-01T08:55:39.046Z",
  "devdoc": {
    "methods": {}
  },
  "userdoc": {
    "methods": {}
  }
}